:020000040800F2
:100000000008002089010008E1010008E101000862
:10001000E1010008E1010008E10100080000000022
:10002000000000000000000000000000E1010008E6
:10003000E101000800000000E1010008E101000802
:10004000E1010008E1010008E1010008E101000808
:10005000E1010008E1010008E1010008E1010008F8
:10006000E1010008E1010008E1010008E1010008E8
:10007000E1010008E1010008E1010008E1010008D8
:10008000E1010008E1010008E1010008E1010008C8
:10009000E1010008E1010008E1010008E1010008B8
:1000A000E1010008E1010008E1010008E1010008A8
:1000B000E1010008E1010008E1010008E101000898
:1000C000E1010008E1010008E1010008E101000888
:1000D000E1010008E1010008E1010008E101000878
:1000E000E1010008E1010008E1010008E101000868
:1000F000E1010008E1010008E1010008E101000858
:10010000E1010008E1010008E1010008E101000847
:10011000E1010008E1010008E1010008E101000837
:10012000E1010008E1010008E1010008E101000827
:10013000E1010008E1010008E1010008E101000817
:10014000E1010008E1010008E1010008E101000807
:10015000E1010008E1010008E1010008E1010008F7
:10016000E1010008E1010008E1010008E1010008E7
:10017000E1010008E1010008E1010008E1010008D7
:10018000E1010008E101000880B582B000AF0F4B2B
:100190007B600F4B3B6007E03B681A1D3A607A6852
:1001A000111D796012681A603B680A4A9342F3D3C2
:1001B00009480A494FF000028842B8BF40F8042BB2
:1001C000FADB00F03BFA0837BD4680BD4F1400084B
:1001D000000000200000002000000020000000209F
:1001E00080B400AFFEE700BF80B400AF084A084B00
:1001F0001B6843F00103136000BF054B1B6803F04D
:100200000203002BF9D0BD465DF8047B704700BFA8
:100210000038024080B483B000AF786000BF7B68D4
:100220005A1E7A60002BFAD10C37BD465DF8047B6C
:10023000704700BF80B483B000AF0346FB7100BFBE
:10024000074B1B889BB203F08003002BF8D0044BB4
:10025000FA7992B29A800C37BD465DF8047B7047FC
:100260000014014080B582B000AF786007E07B6881
:100270001B781846FFF7DEFF7B6801337B607B68E5
:100280001B78002BF3D10837BD4680BD80B400AF8A
:10029000164A164B1B6B43F004031363134A134BAC
:1002A0005B6C43F020035364114B4FF008421A6219
:1002B0000F4A0F4B1B6843F4005313600C4A0C4B5E
:1002C0001B6843F4004313600A4B40F282621A81B8
:1002D000084A084B9B899BB243F4005343F0080340
:1002E0009BB29381BD465DF8047B704700380240A5
:1002F000000802400014014080B400AF154A154BBD
:100300005B6C43F4E0635364124A124B1B6B43F083
:1003100001031363104B06225A60104B01229A60AE
:100320000E4B00225A630E4B01229A600C4B0222A4
:100330005A630C4B01229A600A4B04225A630A4A00
:10034000094B1B6843F03F031360BD465DF8047B17
:10035000704700BF003802400023014000200140E8
:1003600000210140002201400000024080B400AFA3
:10037000264A264B1B6B43F002031363234A234B8D
:100380001B6C43F480031364214A214B5B6A43F4E2
:10039000884353621E4A1E4B1B6843F420031360BC
:1003A0001B4A1B4B1B6823F4A0031360184A184B0D
:1003B0005B6843F440635360154A154BDB6823F4D4
:1003C000E003D360134A134B9B889BB243F01003A6
:1003D0009BB293800F4A0F4B9B8B9BB243F0500311
:1003E0009BB293830B4A0B4B1B8C9BB243F01103C4
:1003F0009BB21384074A074B1B889BB243F001034F
:100400009BB21380BD465DF8047B70470038024004
:10041000000402400058004080B400AF094A094B74
:100420001B889BB243F480739BB2138000BF054BC3
:100430009B8A9BB203F00103002BF8D0BD465DF808
:10044000047B70470058004080B485B000AF03467D
:100450000A46FB711346BB71BB79772B13D1164A41
:10046000FB795B009BB2DBB29BB2138200BF124BE5
:100470009B8A9BB203F00203002BF8D00E4B1B8B20
:100480009BB2FB6013E0BB79722B10D10A4AFB7957
:100490005B009BB243F001039BB29BB2138200BF8F
:1004A000054B9B8A9BB203F00203002BF8D0143754
:1004B000BD465DF8047B70470058004080B483B0AF
:1004C00000AF0346FB710C4BFA7992B21A8200BF5F
:1004D000094B9B8A9BB203F08003002BF8D000BF2E
:1004E000054B9B8A9BB203F00403002BF8D00C371A
:1004F000BD465DF8047B70470058004080B400AFF3
:10050000054A054B1B889BB243F400739BB21380D2
:10051000BD465DF8047B70470058004080B500AFD1
:100520000E48FFF79FFEFFF777FF4C207721FFF77C
:100530008BFFEE20FFF7C2FFFFF7E0FFFFF76CFF36
:100540004C207721FFF780FFAC20FFF7B7FF082092
:10055000FFF7B4FFFFF7D2FF80BD00BF0014000813
:1005600080B584B000AFFFF757FF4C207721FFF72D
:100570006BFFAA20FFF7A2FFFFF74EFF4C2072216E
:10058000FFF762FF114A114B1B889BB243F40063D3
:100590009BB213800D4B1B8B9BB2FB6000BF0B4BC0
:1005A0009B8A9BB203F00403002BF8D0FFF7A6FF51
:1005B000064B1B8A9BB2FB72044B1B8A9BB27B606F
:1005C000FB7A18461037BD4680BD00BF005800407A
:1005D00080B582B000AF184A174B9B6843F0804348
:1005E000936000BF144B1B6803F00203002BF9D08B
:1005F000114BDB6C7B607B68642202FB03F31846C3
:1006000000F066FC02460B461046194608A3D3E9E3
:10061000002300F0C3FC02460B461046194600F0CA
:10062000CFFE0346FB70FB7818460837BD4680BDF9
:10063000B4D934E70C684A3F00200140B0B582B01D
:1006400000AF4FF000037B6000233B70FFF7CCFD51
:10065000FFF752FEFFF71AFEFFF788FEFFF75EFF77
:100660000E48FFF7FFFD4FF47A70FFF7D3FDFFF759
:1006700077FF03461D46FFF7ABFF03461C463B468C
:10068000184607492A46234600F0BAFA3B46184660
:10069000FFF7E8FD0348FFF7BDFDE8E71414000885
:1006A0002014000840420F0080B483B000AF78608F
:1006B0000B46FB707B68FA781A70012318460C37DA
:1006C000BD465DF8047B704780B485B000AF7860AC
:1006D00039600023FB600AE07B685A1C7A603A6844
:1006E000511C396012781A70FB680133FB603B685B
:1006F0001B78002BF0D1FB6818461437BD465DF817
:10070000047B704780B586B000AFF8607A603B60CC
:100710000B46FB7200237B617B68013B7B603B687F
:10072000092B10D93B681E4AA2FB0323DB08FA7A87
:10073000F86811467A68FFF7E5FF78617B69FA6827
:100740001344FB6011E00DE0FB7AF8681946FFF7EF
:10075000ABFFFB680133FB607B6901337B617B6826
:10076000013B7B607B68002BEEDC39680C4BA3FB04
:100770000123DA0813469B0013445B00CA1AD3B264
:100780003033DBB2F8681946FFF78EFF02467B690B
:1007900013447B617B6918461837BD4680BD00BF96
:1007A000CDCCCCCC90B587B000AFF8607A603B6020
:1007B0000B46FB7200237B613B68002B03DA3B682E
:1007C0005B423B6101E03B683B617B68013B7B60D6
:1007D0003B69092B25D93B68002B0FDA3B69314A6D
:1007E000A2FB0323DB085B421C46FB7AF868194630
:1007F0007A682346FFF7D6FF78610DE03B69294A06
:10080000A2FB0323DB081C46FB7AF86819467A68CA
:100810002346FFF7C7FF78617B69FA681344FB60E2
:1008200025E03B68002B02DA7B68013B7B600DE032
:10083000FB7AF8681946FFF737FFFB680133FB6066
:100840007B6901337B617B68013B7B607B68002BAC
:10085000EEDC3B68002B0ADAF8682D21FFF724FF55
:1008600002467B6913447B61FB680133FB60396995
:100870000C4BA3FB0123DA0813469B0013445B00D7
:10088000CA1AD3B23033DBB2F8681946FFF70CFF4F
:1008900002467B6913447B617B6918461C37BD4661
:1008A00090BD00BFCDCCCCCC90B589B002AFF86084
:1008B0007A601A460B46FB721346BB7200237B61BB
:1008C0007B68013B7B60BB6A1B09002B13D0BB6AB2
:1008D0001B09FA7ABC7A0093F86811467A682346B5
:1008E000FFF7E2FF02467B6913447B617B69FA688C
:1008F0001344FB6011E00DE0FB7AF8681946FFF73E
:10090000D3FEFB680133FB607B6901337B617B684D
:10091000013B7B607B68002BEEDCBB6A03F00F03BE
:10092000092B0BD8BB6ADBB203F00F03DBB2303309
:10093000DBB2F8681946FFF7B7FE19E0BB7A002B67
:100940000BD0BB6ADBB203F00F03DBB23733DBB291
:10095000F8681946FFF7A8FE0AE0BB6ADBB203F0AD
:100960000F03DBB25733DBB2F8681946FFF79CFE82
:100970007B6901337B617B6918461C37BD4690BD9E
:1009800090B58BB002AFF860B9607A603B6000232D
:10099000BB6100237B61FB68002B02D0FB68002257
:1009A0001A70FCE07B681B78252B0BD0FB685A1C67
:1009B000FA607A68511C796012781A707B69013389
:1009C0007B61ECE07B6801331B78252B0BD1FB6846
:1009D0005A1CFA6025221A707B6802337B607B699F
:1009E00001337B61DBE02023FB770023BB777B684F
:1009F00001337B607B681B78302B04D13023FB777D
:100A00007B6801337B600EE0BB7F1A469200134483
:100A10005B00DAB27B681B781344DBB2303BBB77F8
:100A20007B6801337B607B681B782F2B03D97B6845
:100A30001B78392BE8D9BA7F7B6913441A46BB6807
:100A40009A4205D9BB68DAB27B69DBB2D31ABB77AD
:100A50007B681B78583B202B00F2938001A252F850
:100A600023F000BF3B0B0008830B0008830B00083A
:100A7000830B0008830B0008830B0008830B00081E
:100A8000830B0008830B0008830B0008830B00080E
:100A90006D0B0008E90A0008830B0008830B0008AF
:100AA000830B0008830B0008E90A0008830B000889
:100AB000830B0008830B0008830B0008830B0008DE
:100AC000830B0008830B0008830B0008830B0008CE
:100AD000590B0008830B0008030B0008830B000868
:100AE000830B00081D0B0008BC7F3B681A1D3A6091
:100AF0001B68FA7FF86811462246FFF753FEB8617B
:100B000042E0BC7F3B681A1D3A601B68FA7FF868B8
:100B100011462246FFF7F6FDB86135E0BC7F3B6821
:100B20001A1D3A601B68FA7F0093F8681146224646
:100B30000023FFF7B9FEB86126E0BC7F3B681A1DB1
:100B40003A601B68FA7F0093F86811462246012339
:100B5000FFF7AAFEB86117E03B681A1D3A601B68F0
:100B6000F8681946FFF7B0FDB8610DE03B681A1D43
:100B70003A601B68DBB2F8681946FFF795FDB8616B
:100B800002E04FF0FF3325E07B6801337B60BB69F7
:100B9000FA681344FB607A69BB6913447B617B6824
:100BA0001B78002B04D07A69BB689A42FFF4FAAE36
:100BB0007A69BB689A4203D2FB6800221A7008E087
:100BC000FB68013BFB60FB6800221A707B69013BFC
:100BD0007B617B6918462437BD4690BD80B584B0E3
:100BE00000AFF860B9607A60F8686421BA687B6821
:100BF000FFF7C6FE034618461037BD4680BD00BF4E
:100C00000EB480B585B000AF786007F12003BB60FB
:100C10007868F969BA68FFF7E1FFF860FB68184681
:100C20001437BD46BDE8804003B0704781F00041F5
:100C300002E000BF83F0004330B54FEA41044FEAC1
:100C4000430594EA050F08BF90EA020F1FBF54EA5C
:100C5000000C55EA020C7FEA645C7FEA655C00F0F8
:100C6000E2804FEA5454D4EB5555B8BF6D420CDDC9
:100C70002C4480EA020281EA030382EA000083EA4C
:100C8000010180EA020281EA0303362D88BF30BDEC
:100C900011F0004F4FEA01314FF4801C4CEA113142
:100CA00002D0404261EB410113F0004F4FEA0333A1
:100CB0004CEA133302D0524263EB430394EA050F2C
:100CC00000F0A780A4F10104D5F1200E0DDB02FA9B
:100CD0000EFC22FA05F2801841F1000103FA0EF22F
:100CE000801843FA05F359410EE0A5F120050EF1F5
:100CF000200E012A03FA0EFC28BF4CF0020C43FA26
:100D000005F3C01851EBE37101F0004507D54FF032
:100D1000000EDCF1000C7EEB00006EEB0101B1F582
:100D2000801F1BD3B1F5001F0CD349085FEA3000C8
:100D30004FEA3C0C04F101044FEA445212F5800FD3
:100D400080F09A80BCF1004F08BF5FEA500C50F170
:100D5000000041EB045141EA050130BD5FEA4C0C53
:100D6000404141EB010111F4801FA4F10104E9D1DC
:100D700091F0000F04BF01460020B1FA81F308BFD3
:100D80002033A3F10B03B3F120020CDA0C3208DD9F
:100D900002F1140CC2F10C0201FA0CF021FA02F17A
:100DA0000CE002F11402D8BFC2F1200C01FA02F1EA
:100DB00020FA0CFCDCBF41EA0C019040E41AA2BF0F
:100DC00001EB0451294330BD6FEA04041F3C1CDAD7
:100DD0000C340EDC04F11404C4F1200220FA04F0F7
:100DE00001FA02F340EA030021FA04F345EA0301A1
:100DF00030BDC4F10C04C4F1200220FA02F001FA63
:100E000004F340EA0300294630BD21FA04F02946E4
:100E100030BD94F0000F83F4801306BF81F480117D
:100E20000134013D4EE77FEA645C18BF7FEA655CF0
:100E300029D094EA050F08BF90EA020F05D054EAC2
:100E4000000C04BF1946104630BD91EA030F1EBFC7
:100E50000021002030BD5FEA545C05D140004941CB
:100E600028BF41F0004130BD14F580043CBF01F5BE
:100E7000801130BD01F0004545F0FE4141F47001A4
:100E80004FF0000030BD7FEA645C1ABF194610467F
:100E90007FEA655C1CBF0B46024650EA013406BF80
:100EA00052EA033591EA030F41F4002130BD00BF3F
:100EB00090F0000F04BF0021704730B54FF48064FC
:100EC00004F132044FF000054FF0000150E700BF7D
:100ED00090F0000F04BF0021704730B54FF48064DC
:100EE00004F1320410F0004548BF40424FF00001C9
:100EF0003EE700BF42004FEAE2014FEA31014FEA0C
:100F000002701FBF12F07F4393F07F4F81F060515A
:100F1000704792F0000F14BF93F07F4F704730B5C9
:100F20004FF4607401F0004521F0004120E700BF5C
:100F300050EA010208BF704730B54FF000050AE0E3
:100F400050EA010208BF704730B511F0004502D5E4
:100F5000404261EB41014FF4806404F132045FEAE6
:100F6000915C3FF4DCAE4FF003025FEADC0C18BF8B
:100F700003325FEADC0C18BF033202EBDC02C2F181
:100F8000200300FA03FC20FA02F001FA03FE40EA13
:100F90000E0021FA02F11444C1E600BF70B54FF013
:100FA000FF0C4CF4E06C1CEA11541DBF1CEA1355F5
:100FB00094EA0C0F95EA0C0F00F0DEF82C4481EA5D
:100FC000030621EA4C5123EA4C5350EA013518BF7D
:100FD00052EA033541F4801143F4801338D0A0FB6A
:100FE00002CE4FF00005E1FB02E506F00042E0FB17
:100FF00003E54FF00006E1FB03569CF0000F18BF1D
:101000004EF0010EA4F1FF04B6F5007F64F54074C4
:1010100004D25FEA4E0E6D4146EB060642EAC62157
:1010200041EA55514FEAC52040EA5E504FEACE2EC4
:10103000B4F1FD0C88BFBCF5E06F1ED8BEF1004FC7
:1010400008BF5FEA500E50F1000041EB045170BD43
:1010500006F0004646EA010140EA020081EA030187
:10106000B4EB5C04C2BFD4EB0C0541EA045170BD83
:1010700041F480114FF0000E013C00F3AB8014F1FD
:10108000360FDEBF002001F0004170BDC4F1000446
:10109000203C35DA0C341BDC04F11404C4F12005C7
:1010A00000FA05F320FA04F001FA05F240EA020022
:1010B00001F0004221F0004110EBD37021FA04F658
:1010C00042EB06015EEA430E08BF20EAD37070BD12
:1010D000C4F10C04C4F1200500FA04F320FA05F071
:1010E00001FA04F240EA020001F0004110EBD37073
:1010F00041F100015EEA430E08BF20EAD37070BDE3
:10110000C4F1200500FA05F24EEA020E20FA04F3BB
:1011100001FA05F243EA020321FA04F001F000416A
:1011200021FA04F220EA020000EBD3705EEA430EDB
:1011300008BF20EAD37070BD94F0000F0FD101F00A
:101140000046400041EB010111F4801F08BF013C43
:10115000F7D041EA060195F0000F18BF704703F081
:101160000046520043EB030313F4801F08BF013D08
:10117000F7D043EA0603704794EA0C0F0CEA1355C4
:1011800018BF95EA0C0F0CD050EA410618BF52EA7E
:101190004306D1D181EA030101F000414FF0000084
:1011A00070BD50EA410606BF1046194652EA430692
:1011B00019D094EA0C0F02D150EA013613D195EA06
:1011C0000C0F05D152EA03361CBF104619460AD14E
:1011D00081EA030101F0004141F0FE4141F4700158
:1011E0004FF0000070BD41F0FE4141F4780170BD48
:1011F00070B54FF0FF0C4CF4E06C1CEA11541DBFAD
:101200001CEA135594EA0C0F95EA0C0F00F0A7F8AE
:10121000A4EB050481EA030E52EA03354FEA0131DB
:1012200000F088804FEA03334FF0805545EA1313EE
:1012300043EA12634FEA022245EA111545EA1065B6
:101240004FEA00260EF000419D4208BF964244F14D
:10125000FD0404F5407402D25B084FEA3202B61A6C
:1012600065EB03055B084FEA32024FF480104FF440
:10127000002CB6EB020E75EB030E22BFB61A7546B4
:1012800040EA0C005B084FEA3202B6EB020E75EB47
:10129000030E22BFB61A754640EA5C005B084FEAAF
:1012A0003202B6EB020E75EB030E22BFB61A75467C
:1012B00040EA9C005B084FEA3202B6EB020E75EB87
:1012C000030E22BFB61A754640EADC0055EA060E48
:1012D00018D04FEA051545EA16754FEA06164FEA8B
:1012E000C30343EA52734FEAC2025FEA1C1CC0D137
:1012F00011F4801F0BD141EA00014FF000004FF0C4
:10130000004CB6E711F4801F04BF01430020B4F184
:10131000FD0C88BFBCF5E06F3FF6AFAEB5EB030C3C
:1013200004BFB6EB020C5FEA500C50F1000041EB39
:10133000045170BD0EF0004E4EEA113114EB5C0406
:10134000C2BFD4EB0C0541EA045170BD41F48011D9
:101350004FF0000E013C90E645EA060E8DE60CEAE1
:10136000135594EA0C0F08BF95EA0C0F3FF43BAFFE
:1013700094EA0C0F0AD150EA01347FF434AF95EAB5
:101380000C0F7FF425AF104619462CE795EA0C0F99
:1013900006D152EA03353FF4FDAE1046194622E766
:1013A00050EA410618BF52EA43067FF4C5AE50EA40
:1013B00041047FF40DAF52EA43057FF4EBAE12E730
:1013C0004A0011D212F5001211D20DD56FF47873C4
:1013D000B3EB62520ED44FEAC12343F0004343EA19
:1013E000505323FA02F070474FF00000704750EA64
:1013F000013002D14FF0FF3070474FF000007047CE
:10140000434F4E464947204932432E2E2E2E2E2E34
:101410002E0A0A0068656C6C6F2053544D0A000058
:1014200054656D7065726174757265204453313610
:1014300032313D2025640A54656D706572617475A2
:0F1440007265204C4D3335203D2025640A0A008B
:0400000508000000EF
:00000001FF
